:100000000C945D000C9485000C9485000C94850084
:100010000C9485000C9485000C9485000C9485004C
:100020000C9485000C9485000C9485000C941C03A2
:100030000C9485000C9485000C9485000C9485002C
:100040000C947A020C9485000C94EA020C94C4027D
:100050000C9485000C9485000C9485000C9485000C
:100060000C9485000C9485000000000024002700FB
:100070002A0000000000250028002B0004040404CE
:100080000404040402020202020203030303030342
:10009000010204081020408001020408102001021F
:1000A00004081020000000080002010000030407FB
:1000B0000000000000000000D80311241FBECFEF95
:1000C000D8E0DEBFCDBF11E0A0E0B1E0E8EAF2E1A8
:1000D00002C005900D92A432B107D9F721E0A4E245
:1000E000B1E001C01D92A73FB207E1F710E0CDE5F6
:1000F000D0E004C02197FE010E945A07CC35D107F9
:10010000C9F70E9435040C9452090C94000090E049
:10011000FC01EC55FF4F2491FC01E057FF4F349157
:10012000FC01E458FF4FE491EE23C9F0222339F09B
:10013000233001F1A8F4213019F1223029F1F0E047
:10014000EE0FFF1FEE58FF4FA591B4918FB7F894B3
:10015000EC91611126C030953E233C938FBF0895EA
:100160002730A9F02830C9F0243049F78091800069
:100170008F7D03C0809180008F7780938000DFCFD8
:1001800084B58F7784BDDBCF84B58F7DFBCF809125
:10019000B0008F778093B000D2CF8091B0008F7D78
:1001A000F9CF3E2BDACF3FB7F8948091260190919A
:1001B0002701A0912801B091290126B5A89B05C06F
:1001C0002F3F19F00196A11DB11D3FBFBA2FA92FD6
:1001D000982F8827BC01CD01620F711D811D911DD3
:1001E00042E0660F771F881F991F4A95D1F708953F
:1001F000AF92BF92CF92DF92EF92FF920F931F9335
:10020000CF93DF936C017B018B01040F151FEB0172
:100210005E01AE18BF08C017D10759F06991D60129
:10022000ED91FC910190F081E02DC6010995892B9B
:1002300079F7C501DF91CF911F910F91FF90EF905A
:10024000DF90CF90BF90AF900895FC01538D448D07
:10025000252F30E0842F90E0821B930B541710F071
:10026000CF96089501970895FC01918D828D98177E
:1002700061F0A28DAE0FBF2FB11D5D968C91928D56
:100280009F5F9F73928F90E008958FEF9FEF089587
:100290002FB7F89480912A0190912B01A0912C0105
:1002A000B0912D012FBF8093360190933701A09319
:1002B0003801B09339018EE291E00E94340197FF3A
:1002C00026C02FB7F89480912A0190912B01A0911C
:1002D0002C01B0912D012FBF409136015091370173
:1002E0006091380170913901841B950BA60BB70BF7
:1002F0004091320150913301609134017091350188
:1003000084179507A607B707B0F28FEF9FEF089500
:10031000FC01918D828D981731F0828DE80FF11DCF
:10032000858D90E008958FEF9FEF0895FC01918DEA
:10033000228D892F90E0805C9F4F821B91098F73E3
:10034000992708958EE291E00E94960121E0892B81
:1003500009F420E0822F089580E090E0892B29F0B5
:100360000E94A20181110C9400000895FC01A48D4B
:10037000A80FB92FB11DA35ABF4F2C91848D90E0C7
:1003800001968F739927848FA689B7892C93A089AA
:10039000B1898C91837080648C93938D848D981334
:1003A00006C00288F389E02D80818F7D80830895C7
:1003B000EF92FF920F931F93CF93DF93EC0181E0B5
:1003C000888F9B8D8C8D98131AC0E889F98980815C
:1003D00085FF15C09FB7F894EE89FF896083E8898F
:1003E000F98980818370806480839FBF81E090E081
:1003F000DF91CF911F910F91FF90EF900895F62E0E
:100400000B8D10E00F5F1F4F0F731127E02E8C8DA7
:100410008E110CC00FB607FCFACFE889F9898081EC
:1004200085FFF5CFCE010E94B601F1CFEB8DEC0F29
:10043000FD2FF11DE35AFF4FF0829FB7F8940B8F09
:10044000EA89FB8980818062CFCFCF93DF93EC0173
:10045000888D8823B9F0AA89BB89E889F9898C91AC
:1004600085FD03C0808186FD0DC00FB607FCF7CF68
:100470008C9185FFF2CF808185FFEDCFCE010E9468
:10048000B601E9CFDF91CF910895FC0101900020E2
:10049000E9F73197AF01481B590BBC018EE291E09F
:1004A0000C94F8000F931F93CF93DF93EC01888196
:1004B0009981009759F02A813B812617370730F040
:1004C00081E0DF91CF911F910F9108958B016F5FB4
:1004D0007F4F0E948508009759F0998388831B837A
:1004E0000A832C813D81232B59F7FC011082E8CF30
:1004F00080E0E7CF1F920F920FB60F9211242F9337
:100500003F938F939F93AF93BF9380912A019091D4
:100510002B01A0912C01B0912D013091250123E0F8
:10052000230F2D3758F50196A11DB11D20932501EC
:1005300080932A0190932B01A0932C01B0932D015D
:100540008091260190912701A0912801B091290165
:100550000196A11DB11D8093260190932701A093C0
:100560002801B0932901BF91AF919F918F913F9145
:100570002F910F900FBE0F901F90189526E8230F14
:100580000296A11DB11DD2CF1F920F920FB60F92EE
:1005900011242F933F934F935F936F937F938F9388
:1005A0009F93AF93BF93EF93FF938EE291E00E94EE
:1005B000B601FF91EF91BF91AF919F918F917F9184
:1005C0006F915F914F913F912F910F900FBE0F90C0
:1005D0001F9018951F920F920FB60F9211242F9310
:1005E0008F939F93EF93FF93E0913E01F0913F0132
:1005F0008081E0914401F091450182FD1BC0908112
:10060000809147018F5F8F7320914801821741F0DD
:10061000E0914701F0E0E25DFE4F958F8093470146
:10062000FF91EF919F918F912F910F900FBE0F909F
:100630001F9018958081F4CF1F920F920FB60F92E2
:1006400011242F933F934F935F936F937F938F93D7
:100650009F93AF93BF93CF93DF93EF93FF938091DB
:100660002401C091EF01D0E087FF24C010928500E3
:1006700010928400809124018F5F809324018091E7
:100680002401082E000C990B8C179D0724F48091EF
:1006900024018C30C4F180918400909185000496EF
:1006A00080349C4908F47AC0809184009091850040
:1006B000049676C080912401082E000C990B8C17AB
:1006C0009D07C4F6E09124018E2FEE0F990BFC01DB
:1006D000EE0FFF1FE80FF91FE553FE4F808186FFE5
:1006E000C9CFE09124018E2FEE0F990BFC01EE0F84
:1006F000FF1FE80FF91FE553FE4F808160E08F7305
:100700000E948700B7CF2091840030918500E0914E
:1007100024018E2FEE0F990BFC01EE0FFF1FE80F47
:10072000F91FE553FE4F81819281820F931F9093B1
:10073000890080938800E09124018E2FEE0F990BA1
:10074000FC01EE0FFF1FE80FF91FE553FE4F8081FC
:1007500086FF11C0E09124018E2FEE0F990BFC0152
:10076000EE0FFF1FE80FF91FE553FE4F808161E098
:100770008F730E948700FF91EF91DF91CF91BF911E
:10078000AF919F918F917F916F915F914F913F9129
:100790002F910F900FBE0F901F90189580E49CE949
:1007A00090938900809388008FEF80932401E3CF9A
:1007B000109231011092300188EE93E0A0E0B0E099
:1007C0008093320190933301A0933401B0933501AB
:1007D0008AE091E090932F0180932E0185EC90E0C8
:1007E00090933B0180933A0184EC90E090933D011B
:1007F00080933C0180EC90E090933F0180933E0118
:1008000081EC90E0909341018093400182EC90E074
:10081000909343018093420186EC90E090934501D0
:1008200080934401109247011092480110924901AF
:1008300010924A018091EF018C3098F491E0980F6A
:100840009093EF018093F00190E0FC01EE0FFF1F09
:10085000E80FF91FE553FE4F88EB9BE092838183FD
:1008600008958FEF8093F0010895CF93DF93CDB774
:10087000DEB7A7970FB6F894DEBF0FBECDBF789452
:1008800084B5826084BD84B5816084BD85B5826095
:1008900085BD85B5816085BD80916E008160809346
:1008A0006E001092810080918100826080938100AF
:1008B00080918100816080938100809180008160BF
:1008C000809380008091B10084608093B10080911A
:1008D000B00081608093B00080917A008460809342
:1008E0007A0080917A00826080937A0080917A0009
:1008F000816080937A0080917A00806880937A008A
:100900001092C1008091F0018C3008F068C0E2E9DB
:10091000F0E02491EEE7F0E08491882399F090E0F4
:10092000880F991FFC01E859FF4FA591B491FC0174
:10093000EE58FF4F859194918FB7F894EC91E22B8C
:10094000EC938FBF8091F001282F30E0F901EE0F7A
:10095000FF1FE20FF31FE553FE4F9081907C9260E2
:1009600090831092F1011092F2012CE0622F0E940C
:100970004E07829FB001112430E020E0AB01420F0E
:10098000531FFA01EE0FFF1FE40FF51FE553FE4F53
:10099000908196FD16C02F5F3F4F2C30310571F7C7
:1009A00081110FC01092800082E08093810010922C
:1009B000850010928400B19A80916F0082608093CC
:1009C0006F00E091F0018E2F90E0FC01EE0FFF1F11
:1009D000E80FF91FE553FE4F808180648083E0912A
:1009E0003E01F0913F0182E08083E0913A01F09175
:1009F0003B011082E0913C01F0913D018FEC80833E
:100A000010924601E0914201F091430186E080831B
:100A1000E0914001F0914101808180618083E0910B
:100A20004001F0914101808188608083E091400124
:100A3000F0914101808180688083E0914001F091D4
:100A4000410180818F7D80831AE0812E912CA12C21
:100A5000B12CB8E52B2EB2E03B2E8EE291E00E9445
:100A60009601181619060CF020C11BA21AA21DA28D
:100A70001CA21FA21EA270E060E0CE0182960E941E
:100A800052022AA13BA181112BC02115310519F079
:100A9000C9010E94FC071BA21AA21FA21EA21DA22E
:100AA0001CA20E94480197FD23C089831A820EA1CF
:100AB0001FA10F5F1F4FB801CE0182960E94520204
:100AC000882379F32AA13BA18EA19FA1BE016F5F6C
:100AD0007F4F820F931F0E944B091FA30EA3E1CFEC
:100AE0001FA21EA262E271E0C9010E944B09D9CF88
:100AF0008AA19BA1C12CD12C7601009719F00E94EC
:100B000078066B01860188E191E00E9445020D2C78
:100B1000000CEE08FF08F7FED5C06DE28EE291E012
:100B20000E94D80122273327A9012C193D094E091B
:100B30005F0919A2CE0181967C01CA01B901A50104
:100B400094010E941D07605DF70162937F012115EA
:100B500031054105510589F7E114F10419F0C70188
:100B60000E94450280E291E00E9445020032F2E0DC
:100B70001F07E4F58091F101E8E8CE2ED12CC81AC8
:100B8000D10887FDD394CC0CDD1CCC0CDD1C0D2CC6
:100B9000000CEE08FF088091F2019101281B310939
:100BA00087FD3395220F331F220F331F032E000CB6
:100BB000440B550B2C193D094E095F09D801053B23
:100BC000110514F0A4EBB0E0B7FF02C0B0E0A0E064
:100BD0000E94DE0624EB30E040E050E00E94B406C4
:100BE00089019A010C0D1D1D2E1D3F1D2091F00144
:100BF0002C3080F58091F10148E850E0481B510904
:100C000087FD5395CA01880F991F880F991F0817F0
:100C1000190784F08091F201F101E81BF10987FDC9
:100C2000F395CF01880F991F880F991F081719078F
:100C30000CF4C8010297880F991F4FB7F89430E061
:100C4000F901EE0FFF1FE20FF31FE553FE4F9283F2
:100C500081834FBF0E94D3002B013C0188EEC82E38
:100C600083E0D82EE12CF12C0E94D3006419750981
:100C700086099709683E734081059105A8F3F1E064
:100C8000CF1AD108E108F10828EE420E23E0521EE7
:100C9000611C711CC114D104E104F10429F78AA17B
:100CA0009BA1009711F00E94FC0780E090E0892B47
:100CB00009F4D3CE0E94A201882309F4CACE0E946F
:100CC0000000C7CEA701960119A2CE0181967C0132
:100CD000CA01B901A50194010E941D07605DF701D9
:100CE00062937F01211531054105510589F734CF04
:100CF0001F93FC0199278827BC01E89411911032B9
:100D0000E9F3193010F01E30C8F31B3251F01D32D8
:100D100049F4689406C00E949F06610F711D811DF1
:100D2000911D119110531A30B0F33EF490958095B7
:100D3000709561957F4F8F4F9F4F1F910895592F49
:100D4000482F372F262F660F771F881F991F660F92
:100D5000771F881F991F620F731F841F951F660FCF
:100D6000771F881F991F0895052E97FB1EF4009486
:100D70000E94CB0657FD07D00E941D0707FC03D039
:100D80004EF40C94CB0650954095309521953F4FED
:100D90004F4F5F4F089590958095709561957F4F67
:100DA0008F4F9F4F08950E943F07A59F900DB49FBE
:100DB000900DA49F800D911D11240895B7FF0C94F0
:100DC000D3060E94D306821B930B08952F923F9265
:100DD0004F925F926F927F928F929F92AF92BF924B
:100DE000CF92DF92EF92FF920F931F93CF93DF93F7
:100DF000CDB7DEB7CA1BDB0B0FB6F894DEBF0FBE54
:100E0000CDBF09942A88398848885F846E847D84A0
:100E10008C849B84AA84B984C884DF80EE80FD80A2
:100E20000C811B81AA81B981CE0FD11D0FB6F89418
:100E3000DEBF0FBECDBFED010895A1E21A2EAA1BA1
:100E4000BB1BFD010DC0AA1FBB1FEE1FFF1FA2177A
:100E5000B307E407F50720F0A21BB30BE40BF50B77
:100E6000661F771F881F991F1A9469F76095709500
:100E7000809590959B01AC01BD01CF010895A29F83
:100E8000B001B39FC001A39F700D811D1124911D5E
:100E9000B29F700D811D1124911D0895991B79E059
:100EA00004C0991F961708F0961B881F7A95C9F7FA
:100EB00080950895EE0FFF1F0590F491E02D0994A1
:100EC0000F931F93CF93DF938230910510F482E04C
:100ED00090E0E091F501F091F60130E020E0B0E023
:100EE000A0E0309799F42115310509F44AC0281B78
:100EF000390B24303105D8F58A819B816115710544
:100F000089F1FB0193838283FE0111C040815181ED
:100F10000281138148175907E0F04817590799F4DF
:100F2000109761F012960C93129713961C933296B9
:100F3000CF01DF91CF911F910F9108950093F5019B
:100F40001093F601F4CF2115310551F042175307E4
:100F500038F0A901DB019A01BD01DF01F801C1CF21
:100F6000EF01F9CF9093F6018093F501CDCFFE010B
:100F7000E20FF31F81939193225031093983288323
:100F8000D7CF2091F3013091F401232B41F420912C
:100F90000201309103013093F4012093F301209179
:100FA0000001309101012115310541F42DB73EB703
:100FB0004091040150910501241B350BE091F30190
:100FC000F091F401E217F307A0F42E1B3F0B281752
:100FD000390778F0AC014E5F5F4F2417350748F0B2
:100FE0004E0F5F1F5093F4014093F301819391934F
:100FF0009FCFF0E0E0E09CCFCF93DF930097E9F044
:10100000FC01329713821282A091F501B091F60192
:10101000ED0130E020E01097A1F420813181820FB2
:10102000931F2091F3013091F4012817390709F03B
:1010300061C0F093F401E093F301DF91CF91089543
:10104000EA01CE17DF07E8F54A815B819E01411571
:101050005105B1F7E901FB83EA8349915991C40F26
:10106000D51FEC17FD0761F4808191810296840FF2
:10107000951FE90199838883828193819B838A8369
:10108000F0E0E0E012968D919C9113970097B9F5EE
:101090002D913C911197CD010296820F931F2091C3
:1010A000F3013091F4012817390739F6309751F5DB
:1010B0001092F6011092F501B093F401A093F301A0
:1010C000BCCFD383C28340815181840F951FC81741
:1010D000D90761F44E5F5F4F88819981480F591F8E
:1010E000518340838A819B819383828321153105BB
:1010F00009F0B0CFF093F601E093F5019ECFFD012A
:10110000DC01C0CF13821282D7CFB0E0A0E0EBE8C1
:10111000F8E00C94E8068C01009751F4CB010E9492
:1011200060078C01C801CDB7DEB7E0E10C9404077D
:10113000FC01E60FF71F9C0122503109E217F3076B
:1011400008F49DC0D901CD91DC911197C617D7073E
:1011500098F0C530D10530F3CE0104978617970774
:1011600008F3C61BD70B2297C193D1936D937C9341
:10117000CF010E94FC07D6CF5B01AC1ABD0A4C011F
:101180008C0E9D1EA091F501B091F601512C412CC1
:10119000F12CE12C109731F58091F3019091F4013D
:1011A0008815990509F05CC04616570608F058C026
:1011B0008091000190910101009741F48DB79EB795
:1011C0004091040150910501841B950BE817F90724
:1011D00008F055C0F093F401E093F301F901718335
:1011E0006083A0CF8D919C91119712966C9012976D
:1011F00013967C901397A815B90559F56C0142E038
:10120000C40ED11CCA14DB0420F1AC014A195B09DD
:10121000DA011296159780F06282738251834083BF
:10122000D9016D937C93E114F10471F0D701139609
:10123000FC93EE93129776CF22968C0F9D1FF901A7
:1012400091838083F301EFCFF093F601E093F501F2
:1012500069CF4816590608F42C017D01D3019ACFB5
:10126000CB010E9460077C01009749F0AE01B801F4
:101270000E944209C8010E94FC07870153CF10E079
:1012800000E050CFFB01DC0102C001900D92415003
:101290005040D8F70895FB01DC0101900D92002029
:0812A000E1F70895F894FFCF77
:1012A8000000F701800000000000D801F8002501C7
:1012B8002502960134018801616E676C653A200049
:0412C8000D0A00000B
:00000001FF
